{
  "_format": "hh-sol-artifact-1",
  "contractName": "LimitedNFT",
  "sourceName": "contracts/LimitedNFTContract.sol",
  "abi": [
    {
      "inputs": [],
      "stateMutability": "nonpayable",
      "type": "constructor"
    },
    {
      "anonymous": false,
      "inputs": [
        {
          "indexed": true,
          "internalType": "address",
          "name": "account",
          "type": "address"
        },
        {
          "indexed": true,
          "internalType": "address",
          "name": "operator",
          "type": "address"
        },
        {
          "indexed": false,
          "internalType": "bool",
          "name": "approved",
          "type": "bool"
        }
      ],
      "name": "ApprovalForAll",
      "type": "event"
    },
    {
      "anonymous": false,
      "inputs": [
        {
          "indexed": true,
          "internalType": "address",
          "name": "previousOwner",
          "type": "address"
        },
        {
          "indexed": true,
          "internalType": "address",
          "name": "newOwner",
          "type": "address"
        }
      ],
      "name": "OwnershipTransferred",
      "type": "event"
    },
    {
      "anonymous": false,
      "inputs": [
        {
          "indexed": true,
          "internalType": "address",
          "name": "operator",
          "type": "address"
        },
        {
          "indexed": true,
          "internalType": "address",
          "name": "from",
          "type": "address"
        },
        {
          "indexed": true,
          "internalType": "address",
          "name": "to",
          "type": "address"
        },
        {
          "indexed": false,
          "internalType": "uint256[]",
          "name": "ids",
          "type": "uint256[]"
        },
        {
          "indexed": false,
          "internalType": "uint256[]",
          "name": "values",
          "type": "uint256[]"
        }
      ],
      "name": "TransferBatch",
      "type": "event"
    },
    {
      "anonymous": false,
      "inputs": [
        {
          "indexed": true,
          "internalType": "address",
          "name": "operator",
          "type": "address"
        },
        {
          "indexed": true,
          "internalType": "address",
          "name": "from",
          "type": "address"
        },
        {
          "indexed": true,
          "internalType": "address",
          "name": "to",
          "type": "address"
        },
        {
          "indexed": false,
          "internalType": "uint256",
          "name": "id",
          "type": "uint256"
        },
        {
          "indexed": false,
          "internalType": "uint256",
          "name": "value",
          "type": "uint256"
        }
      ],
      "name": "TransferSingle",
      "type": "event"
    },
    {
      "anonymous": false,
      "inputs": [
        {
          "indexed": false,
          "internalType": "string",
          "name": "value",
          "type": "string"
        },
        {
          "indexed": true,
          "internalType": "uint256",
          "name": "id",
          "type": "uint256"
        }
      ],
      "name": "URI",
      "type": "event"
    },
    {
      "inputs": [
        {
          "internalType": "address",
          "name": "account",
          "type": "address"
        },
        {
          "internalType": "uint256",
          "name": "id",
          "type": "uint256"
        }
      ],
      "name": "balanceOf",
      "outputs": [
        {
          "internalType": "uint256",
          "name": "",
          "type": "uint256"
        }
      ],
      "stateMutability": "view",
      "type": "function"
    },
    {
      "inputs": [
        {
          "internalType": "address[]",
          "name": "accounts",
          "type": "address[]"
        },
        {
          "internalType": "uint256[]",
          "name": "ids",
          "type": "uint256[]"
        }
      ],
      "name": "balanceOfBatch",
      "outputs": [
        {
          "internalType": "uint256[]",
          "name": "",
          "type": "uint256[]"
        }
      ],
      "stateMutability": "view",
      "type": "function"
    },
    {
      "inputs": [],
      "name": "getTotalSupply",
      "outputs": [
        {
          "internalType": "uint256",
          "name": "",
          "type": "uint256"
        }
      ],
      "stateMutability": "view",
      "type": "function"
    },
    {
      "inputs": [
        {
          "internalType": "address",
          "name": "account",
          "type": "address"
        },
        {
          "internalType": "address",
          "name": "operator",
          "type": "address"
        }
      ],
      "name": "isApprovedForAll",
      "outputs": [
        {
          "internalType": "bool",
          "name": "",
          "type": "bool"
        }
      ],
      "stateMutability": "view",
      "type": "function"
    },
    {
      "inputs": [
        {
          "internalType": "address",
          "name": "_to",
          "type": "address"
        },
        {
          "internalType": "uint256",
          "name": "_newItemId",
          "type": "uint256"
        }
      ],
      "name": "mintAndTransfer",
      "outputs": [],
      "stateMutability": "nonpayable",
      "type": "function"
    },
    {
      "inputs": [],
      "name": "name",
      "outputs": [
        {
          "internalType": "string",
          "name": "",
          "type": "string"
        }
      ],
      "stateMutability": "view",
      "type": "function"
    },
    {
      "inputs": [],
      "name": "owner",
      "outputs": [
        {
          "internalType": "address",
          "name": "",
          "type": "address"
        }
      ],
      "stateMutability": "view",
      "type": "function"
    },
    {
      "inputs": [],
      "name": "renounceOwnership",
      "outputs": [],
      "stateMutability": "nonpayable",
      "type": "function"
    },
    {
      "inputs": [
        {
          "internalType": "address",
          "name": "from",
          "type": "address"
        },
        {
          "internalType": "address",
          "name": "to",
          "type": "address"
        },
        {
          "internalType": "uint256[]",
          "name": "ids",
          "type": "uint256[]"
        },
        {
          "internalType": "uint256[]",
          "name": "amounts",
          "type": "uint256[]"
        },
        {
          "internalType": "bytes",
          "name": "data",
          "type": "bytes"
        }
      ],
      "name": "safeBatchTransferFrom",
      "outputs": [],
      "stateMutability": "nonpayable",
      "type": "function"
    },
    {
      "inputs": [
        {
          "internalType": "address",
          "name": "from",
          "type": "address"
        },
        {
          "internalType": "address",
          "name": "to",
          "type": "address"
        },
        {
          "internalType": "uint256",
          "name": "id",
          "type": "uint256"
        },
        {
          "internalType": "uint256",
          "name": "amount",
          "type": "uint256"
        },
        {
          "internalType": "bytes",
          "name": "data",
          "type": "bytes"
        }
      ],
      "name": "safeTransferFrom",
      "outputs": [],
      "stateMutability": "nonpayable",
      "type": "function"
    },
    {
      "inputs": [
        {
          "internalType": "address",
          "name": "operator",
          "type": "address"
        },
        {
          "internalType": "bool",
          "name": "approved",
          "type": "bool"
        }
      ],
      "name": "setApprovalForAll",
      "outputs": [],
      "stateMutability": "nonpayable",
      "type": "function"
    },
    {
      "inputs": [
        {
          "internalType": "bytes4",
          "name": "interfaceId",
          "type": "bytes4"
        }
      ],
      "name": "supportsInterface",
      "outputs": [
        {
          "internalType": "bool",
          "name": "",
          "type": "bool"
        }
      ],
      "stateMutability": "view",
      "type": "function"
    },
    {
      "inputs": [],
      "name": "symbol",
      "outputs": [
        {
          "internalType": "string",
          "name": "",
          "type": "string"
        }
      ],
      "stateMutability": "view",
      "type": "function"
    },
    {
      "inputs": [
        {
          "internalType": "address",
          "name": "newOwner",
          "type": "address"
        }
      ],
      "name": "transferOwnership",
      "outputs": [],
      "stateMutability": "nonpayable",
      "type": "function"
    },
    {
      "inputs": [
        {
          "internalType": "uint256",
          "name": "",
          "type": "uint256"
        }
      ],
      "name": "uri",
      "outputs": [
        {
          "internalType": "string",
          "name": "",
          "type": "string"
        }
      ],
      "stateMutability": "view",
      "type": "function"
    }
  ],
  "bytecode": "0x60806040523480156200001157600080fd5b5060405180608001604052806048815260200162001c11604891396200003781620000c4565b506200004333620000dd565b33600090815260086020908152604080832092909255815180830190925260108083526f2634b6b4ba32b221b2b6362a37b5b2b760811b929091019182526200008f916005916200012f565b506040805180820190915260048082526310d95b1b60e21b6020909201918252620000bd916006916200012f565b5062000212565b8051620000d99060029060208401906200012f565b5050565b600380546001600160a01b038381166001600160a01b0319831681179093556040519116919082907f8be0079c531659141344cd1fd0a4f28419497f9722a3daafe3b4186f6b6457e090600090a35050565b8280546200013d90620001d5565b90600052602060002090601f016020900481019282620001615760008555620001ac565b82601f106200017c57805160ff1916838001178555620001ac565b82800160010185558215620001ac579182015b82811115620001ac5782518255916020019190600101906200018f565b50620001ba929150620001be565b5090565b5b80821115620001ba5760008155600101620001bf565b600181811c90821680620001ea57607f821691505b602082108114156200020c57634e487b7160e01b600052602260045260246000fd5b50919050565b6119ef80620002226000396000f3fe608060405234801561001057600080fd5b50600436106100f45760003560e01c8063715018a611610097578063c4e41b2211610066578063c4e41b22146101f0578063e985e9c5146101f8578063f242432a14610234578063f2fde38b1461024757600080fd5b8063715018a6146101b25780638da5cb5b146101ba57806395d89b41146101d5578063a22cb465146101dd57600080fd5b8063080571eb116100d3578063080571eb146101575780630e89341c1461016c5780632eb2c2d61461017f5780634e1273f41461019257600080fd5b8062fdd58e146100f957806301ffc9a71461011f57806306fdde0314610142575b600080fd5b61010c61010736600461147f565b61025a565b6040519081526020015b60405180910390f35b61013261012d366004611573565b6102f1565b6040519015158152602001610116565b61014a610343565b604051610116919061172c565b61016a61016536600461147f565b6103d5565b005b61014a61017a3660046115ab565b61058a565b61016a61018d36600461133c565b61061e565b6101a56101a03660046114a8565b6106b5565b60405161011691906116eb565b61016a610817565b6003546040516001600160a01b039091168152602001610116565b61014a61087d565b61016a6101eb366004611445565b61088c565b61010c61089b565b61013261020636600461130a565b6001600160a01b03918216600090815260016020908152604080832093909416825291909152205460ff1690565b61016a6102423660046113e2565b6108ab565b61016a6102553660046112f0565b610932565b60006001600160a01b0383166102cb5760405162461bcd60e51b815260206004820152602b60248201527f455243313135353a2062616c616e636520717565727920666f7220746865207a60448201526a65726f206164647265737360a81b60648201526084015b60405180910390fd5b506000908152602081815260408083206001600160a01b03949094168352929052205490565b60006001600160e01b03198216636cdb3d1360e11b148061032257506001600160e01b031982166303a24d0760e21b145b8061033d57506301ffc9a760e01b6001600160e01b03198316145b92915050565b60606005805461035290611852565b80601f016020809104026020016040519081016040528092919081815260200182805461037e90611852565b80156103cb5780601f106103a0576101008083540402835291602001916103cb565b820191906000526020600020905b8154815290600101906020018083116103ae57829003601f168201915b5050505050905090565b806103e86003546001600160a01b031690565b6001600160a01b0316336001600160a01b031614806104115750600161040e338361025a565b10155b61044a5760405162461bcd60e51b815260206004820152600a6024820152693737ba1036b2b6b132b960b11b60448201526064016102c2565b828261045e6003546001600160a01b031690565b6001600160a01b0316336001600160a01b0316148061048c5750336000908152600760205260409020546002115b80156104a25750600061049f838361025a565b11155b6104de5760405162461bcd60e51b815260206004820152600d60248201526c63616e6e6f7420696e7669746560981b60448201526064016102c2565b6104ec600480546001019055565b61050833856001604051806020016040528060008152506109fd565b6105253386866001604051806020016040528060008152506108ab565b33600090815260076020526040902054610540906001610b07565b33600090815260076020908152604080832093909355600890522054610567906001610b07565b6001600160a01b0390951660009081526008602052604090209490945550505050565b60606002805461059990611852565b80601f01602080910402602001604051908101604052809291908181526020018280546105c590611852565b80156106125780601f106105e757610100808354040283529160200191610612565b820191906000526020600020905b8154815290600101906020018083116105f557829003601f168201915b50505050509050919050565b6001600160a01b03851633148061063a575061063a8533610206565b6106a15760405162461bcd60e51b815260206004820152603260248201527f455243313135353a207472616e736665722063616c6c6572206973206e6f74206044820152711bdddb995c881b9bdc88185c1c1c9bdd995960721b60648201526084016102c2565b6106ae8585858585610b1a565b5050505050565b6060815183511461071a5760405162461bcd60e51b815260206004820152602960248201527f455243313135353a206163636f756e747320616e6420696473206c656e677468604482015268040dad2e6dac2e8c6d60bb1b60648201526084016102c2565b6000835167ffffffffffffffff81111561074457634e487b7160e01b600052604160045260246000fd5b60405190808252806020026020018201604052801561076d578160200160208202803683370190505b50905060005b845181101561080f576107d485828151811061079f57634e487b7160e01b600052603260045260246000fd5b60200260200101518583815181106107c757634e487b7160e01b600052603260045260246000fd5b602002602001015161025a565b8282815181106107f457634e487b7160e01b600052603260045260246000fd5b6020908102919091010152610808816118ba565b9050610773565b509392505050565b6003546001600160a01b031633146108715760405162461bcd60e51b815260206004820181905260248201527f4f776e61626c653a2063616c6c6572206973206e6f7420746865206f776e657260448201526064016102c2565b61087b6000610d13565b565b60606006805461035290611852565b610897338383610d65565b5050565b60006108a660045490565b905090565b6001600160a01b0385163314806108c757506108c78533610206565b6109255760405162461bcd60e51b815260206004820152602960248201527f455243313135353a2063616c6c6572206973206e6f74206f776e6572206e6f7260448201526808185c1c1c9bdd995960ba1b60648201526084016102c2565b6106ae8585858585610e46565b6003546001600160a01b0316331461098c5760405162461bcd60e51b815260206004820181905260248201527f4f776e61626c653a2063616c6c6572206973206e6f7420746865206f776e657260448201526064016102c2565b6001600160a01b0381166109f15760405162461bcd60e51b815260206004820152602660248201527f4f776e61626c653a206e6577206f776e657220697320746865207a65726f206160448201526564647265737360d01b60648201526084016102c2565b6109fa81610d13565b50565b6001600160a01b038416610a5d5760405162461bcd60e51b815260206004820152602160248201527f455243313135353a206d696e7420746f20746865207a65726f206164647265736044820152607360f81b60648201526084016102c2565b33610a7781600087610a6e88610f63565b6106ae88610f63565b6000848152602081815260408083206001600160a01b038916845290915281208054859290610aa790849061183a565b909155505060408051858152602081018590526001600160a01b0380881692600092918516917fc3d58168c5ae7397731d063d5bbf3d657854427343f4c083240f7aacaa2d0f62910160405180910390a46106ae81600087878787610fbc565b6000610b13828461183a565b9392505050565b8151835114610b7c5760405162461bcd60e51b815260206004820152602860248201527f455243313135353a2069647320616e6420616d6f756e7473206c656e677468206044820152670dad2e6dac2e8c6d60c31b60648201526084016102c2565b6001600160a01b038416610ba25760405162461bcd60e51b81526004016102c290611787565b3360005b8451811015610ca5576000858281518110610bd157634e487b7160e01b600052603260045260246000fd5b602002602001015190506000858381518110610bfd57634e487b7160e01b600052603260045260246000fd5b602090810291909101810151600084815280835260408082206001600160a01b038e168352909352919091205490915081811015610c4d5760405162461bcd60e51b81526004016102c2906117cc565b6000838152602081815260408083206001600160a01b038e8116855292528083208585039055908b16825281208054849290610c8a90849061183a565b9250508190555050505080610c9e906118ba565b9050610ba6565b50846001600160a01b0316866001600160a01b0316826001600160a01b03167f4a39dc06d4c0dbc64b70af90fd698a233a518aa5d07e595d983b8c0526c8f7fb8787604051610cf59291906116fe565b60405180910390a4610d0b818787878787611127565b505050505050565b600380546001600160a01b038381166001600160a01b0319831681179093556040519116919082907f8be0079c531659141344cd1fd0a4f28419497f9722a3daafe3b4186f6b6457e090600090a35050565b816001600160a01b0316836001600160a01b03161415610dd95760405162461bcd60e51b815260206004820152602960248201527f455243313135353a2073657474696e6720617070726f76616c20737461747573604482015268103337b91039b2b63360b91b60648201526084016102c2565b6001600160a01b03838116600081815260016020908152604080832094871680845294825291829020805460ff191686151590811790915591519182527f17307eab39ab6107e8899845ad3d59bd9653f200f220920489ca2b5937696c31910160405180910390a3505050565b6001600160a01b038416610e6c5760405162461bcd60e51b81526004016102c290611787565b33610e7c818787610a6e88610f63565b6000848152602081815260408083206001600160a01b038a16845290915290205483811015610ebd5760405162461bcd60e51b81526004016102c2906117cc565b6000858152602081815260408083206001600160a01b038b8116855292528083208785039055908816825281208054869290610efa90849061183a565b909155505060408051868152602081018690526001600160a01b03808916928a821692918616917fc3d58168c5ae7397731d063d5bbf3d657854427343f4c083240f7aacaa2d0f62910160405180910390a4610f5a828888888888610fbc565b50505050505050565b60408051600180825281830190925260609160009190602080830190803683370190505090508281600081518110610fab57634e487b7160e01b600052603260045260246000fd5b602090810291909101015292915050565b6001600160a01b0384163b15610d0b5760405163f23a6e6160e01b81526001600160a01b0385169063f23a6e619061100090899089908890889088906004016116a6565b602060405180830381600087803b15801561101a57600080fd5b505af192505050801561104a575060408051601f3d908101601f191682019092526110479181019061158f565b60015b6110f757611056611901565b806308c379a01415611090575061106b611919565b806110765750611092565b8060405162461bcd60e51b81526004016102c2919061172c565b505b60405162461bcd60e51b815260206004820152603460248201527f455243313135353a207472616e7366657220746f206e6f6e20455243313135356044820152732932b1b2b4bb32b91034b6b83632b6b2b73a32b960611b60648201526084016102c2565b6001600160e01b0319811663f23a6e6160e01b14610f5a5760405162461bcd60e51b81526004016102c29061173f565b6001600160a01b0384163b15610d0b5760405163bc197c8160e01b81526001600160a01b0385169063bc197c819061116b9089908990889088908890600401611648565b602060405180830381600087803b15801561118557600080fd5b505af19250505080156111b5575060408051601f3d908101601f191682019092526111b29181019061158f565b60015b6111c157611056611901565b6001600160e01b0319811663bc197c8160e01b14610f5a5760405162461bcd60e51b81526004016102c29061173f565b80356001600160a01b038116811461120857600080fd5b919050565b600082601f83011261121d578081fd5b8135602061122a82611816565b604051611237828261188d565b8381528281019150858301600585901b87018401881015611256578586fd5b855b8581101561127457813584529284019290840190600101611258565b5090979650505050505050565b600082601f830112611291578081fd5b813567ffffffffffffffff8111156112ab576112ab6118eb565b6040516112c2601f8301601f19166020018261188d565b8181528460208386010111156112d6578283fd5b816020850160208301379081016020019190915292915050565b600060208284031215611301578081fd5b610b13826111f1565b6000806040838503121561131c578081fd5b611325836111f1565b9150611333602084016111f1565b90509250929050565b600080600080600060a08688031215611353578081fd5b61135c866111f1565b945061136a602087016111f1565b9350604086013567ffffffffffffffff80821115611386578283fd5b61139289838a0161120d565b945060608801359150808211156113a7578283fd5b6113b389838a0161120d565b935060808801359150808211156113c8578283fd5b506113d588828901611281565b9150509295509295909350565b600080600080600060a086880312156113f9578081fd5b611402866111f1565b9450611410602087016111f1565b93506040860135925060608601359150608086013567ffffffffffffffff811115611439578182fd5b6113d588828901611281565b60008060408385031215611457578182fd5b611460836111f1565b915060208301358015158114611474578182fd5b809150509250929050565b60008060408385031215611491578182fd5b61149a836111f1565b946020939093013593505050565b600080604083850312156114ba578182fd5b823567ffffffffffffffff808211156114d1578384fd5b818501915085601f8301126114e4578384fd5b813560206114f182611816565b6040516114fe828261188d565b8381528281019150858301600585901b870184018b101561151d578889fd5b8896505b8487101561154657611532816111f1565b835260019690960195918301918301611521565b509650508601359250508082111561155c578283fd5b506115698582860161120d565b9150509250929050565b600060208284031215611584578081fd5b8135610b13816119a3565b6000602082840312156115a0578081fd5b8151610b13816119a3565b6000602082840312156115bc578081fd5b5035919050565b6000815180845260208085019450808401835b838110156115f2578151875295820195908201906001016115d6565b509495945050505050565b60008151808452815b8181101561162257602081850181015186830182015201611606565b818111156116335782602083870101525b50601f01601f19169290920160200192915050565b6001600160a01b0386811682528516602082015260a060408201819052600090611674908301866115c3565b828103606084015261168681866115c3565b9050828103608084015261169a81856115fd565b98975050505050505050565b6001600160a01b03868116825285166020820152604081018490526060810183905260a0608082018190526000906116e0908301846115fd565b979650505050505050565b602081526000610b1360208301846115c3565b60408152600061171160408301856115c3565b828103602084015261172381856115c3565b95945050505050565b602081526000610b1360208301846115fd565b60208082526028908201527f455243313135353a204552433131353552656365697665722072656a656374656040820152676420746f6b656e7360c01b606082015260800190565b60208082526025908201527f455243313135353a207472616e7366657220746f20746865207a65726f206164604082015264647265737360d81b606082015260800190565b6020808252602a908201527f455243313135353a20696e73756666696369656e742062616c616e636520666f60408201526939103a3930b739b332b960b11b606082015260800190565b600067ffffffffffffffff821115611830576118306118eb565b5060051b60200190565b6000821982111561184d5761184d6118d5565b500190565b600181811c9082168061186657607f821691505b6020821081141561188757634e487b7160e01b600052602260045260246000fd5b50919050565b601f8201601f1916810167ffffffffffffffff811182821017156118b3576118b36118eb565b6040525050565b60006000198214156118ce576118ce6118d5565b5060010190565b634e487b7160e01b600052601160045260246000fd5b634e487b7160e01b600052604160045260246000fd5b600060033d111561191657600481823e5160e01c5b90565b600060443d10156119275790565b6040516003193d81016004833e81513d67ffffffffffffffff816024840111818411171561195757505050505090565b828501915081518181111561196f5750505050505090565b843d87010160208285010111156119895750505050505090565b6119986020828601018761188d565b509095945050505050565b6001600160e01b0319811681146109fa57600080fdfea26469706673582212205be569ca06706dc7fe2cf3917ca5698065ecad53400bd6514db62f686e87d91164736f6c63430008040033697066733a2f2f516d56446869465777313176527a536953505a396d33706f454d6b4d74756755524b437131795a5333596f7a6a582f6d657461646174612f7b69647d2e6a736f6e",
  "linkReferences": {},
  "deployedLinkReferences": {}
}