{
  "_format": "hh-sol-artifact-1",
  "contractName": "LimitedCellToken",
  "sourceName": "contracts/LimitedCellToken.sol",
  "abi": [
    {
      "inputs": [],
      "stateMutability": "nonpayable",
      "type": "constructor"
    },
    {
      "anonymous": false,
      "inputs": [
        {
          "indexed": true,
          "internalType": "address",
          "name": "owner",
          "type": "address"
        },
        {
          "indexed": true,
          "internalType": "address",
          "name": "approved",
          "type": "address"
        },
        {
          "indexed": true,
          "internalType": "uint256",
          "name": "tokenId",
          "type": "uint256"
        }
      ],
      "name": "Approval",
      "type": "event"
    },
    {
      "anonymous": false,
      "inputs": [
        {
          "indexed": true,
          "internalType": "address",
          "name": "owner",
          "type": "address"
        },
        {
          "indexed": true,
          "internalType": "address",
          "name": "operator",
          "type": "address"
        },
        {
          "indexed": false,
          "internalType": "bool",
          "name": "approved",
          "type": "bool"
        }
      ],
      "name": "ApprovalForAll",
      "type": "event"
    },
    {
      "anonymous": false,
      "inputs": [
        {
          "indexed": true,
          "internalType": "address",
          "name": "previousOwner",
          "type": "address"
        },
        {
          "indexed": true,
          "internalType": "address",
          "name": "newOwner",
          "type": "address"
        }
      ],
      "name": "OwnershipTransferred",
      "type": "event"
    },
    {
      "anonymous": false,
      "inputs": [
        {
          "indexed": true,
          "internalType": "address",
          "name": "from",
          "type": "address"
        },
        {
          "indexed": true,
          "internalType": "address",
          "name": "to",
          "type": "address"
        },
        {
          "indexed": true,
          "internalType": "uint256",
          "name": "tokenId",
          "type": "uint256"
        }
      ],
      "name": "Transfer",
      "type": "event"
    },
    {
      "inputs": [
        {
          "internalType": "address",
          "name": "to",
          "type": "address"
        },
        {
          "internalType": "uint256",
          "name": "tokenId",
          "type": "uint256"
        }
      ],
      "name": "approve",
      "outputs": [],
      "stateMutability": "nonpayable",
      "type": "function"
    },
    {
      "inputs": [
        {
          "internalType": "address",
          "name": "owner",
          "type": "address"
        }
      ],
      "name": "balanceOf",
      "outputs": [
        {
          "internalType": "uint256",
          "name": "",
          "type": "uint256"
        }
      ],
      "stateMutability": "view",
      "type": "function"
    },
    {
      "inputs": [
        {
          "internalType": "uint256",
          "name": "tokenId",
          "type": "uint256"
        }
      ],
      "name": "getApproved",
      "outputs": [
        {
          "internalType": "address",
          "name": "",
          "type": "address"
        }
      ],
      "stateMutability": "view",
      "type": "function"
    },
    {
      "inputs": [],
      "name": "getTotalSupply",
      "outputs": [
        {
          "internalType": "uint256",
          "name": "",
          "type": "uint256"
        }
      ],
      "stateMutability": "view",
      "type": "function"
    },
    {
      "inputs": [
        {
          "internalType": "address",
          "name": "owner",
          "type": "address"
        },
        {
          "internalType": "address",
          "name": "operator",
          "type": "address"
        }
      ],
      "name": "isApprovedForAll",
      "outputs": [
        {
          "internalType": "bool",
          "name": "",
          "type": "bool"
        }
      ],
      "stateMutability": "view",
      "type": "function"
    },
    {
      "inputs": [
        {
          "internalType": "address",
          "name": "_to",
          "type": "address"
        },
        {
          "internalType": "string",
          "name": "_tokenURI",
          "type": "string"
        }
      ],
      "name": "mintAndTransfer",
      "outputs": [],
      "stateMutability": "nonpayable",
      "type": "function"
    },
    {
      "inputs": [],
      "name": "name",
      "outputs": [
        {
          "internalType": "string",
          "name": "",
          "type": "string"
        }
      ],
      "stateMutability": "view",
      "type": "function"
    },
    {
      "inputs": [],
      "name": "owner",
      "outputs": [
        {
          "internalType": "address",
          "name": "",
          "type": "address"
        }
      ],
      "stateMutability": "view",
      "type": "function"
    },
    {
      "inputs": [
        {
          "internalType": "uint256",
          "name": "tokenId",
          "type": "uint256"
        }
      ],
      "name": "ownerOf",
      "outputs": [
        {
          "internalType": "address",
          "name": "",
          "type": "address"
        }
      ],
      "stateMutability": "view",
      "type": "function"
    },
    {
      "inputs": [],
      "name": "renounceOwnership",
      "outputs": [],
      "stateMutability": "nonpayable",
      "type": "function"
    },
    {
      "inputs": [
        {
          "internalType": "address",
          "name": "from",
          "type": "address"
        },
        {
          "internalType": "address",
          "name": "to",
          "type": "address"
        },
        {
          "internalType": "uint256",
          "name": "tokenId",
          "type": "uint256"
        }
      ],
      "name": "safeTransferFrom",
      "outputs": [],
      "stateMutability": "nonpayable",
      "type": "function"
    },
    {
      "inputs": [
        {
          "internalType": "address",
          "name": "from",
          "type": "address"
        },
        {
          "internalType": "address",
          "name": "to",
          "type": "address"
        },
        {
          "internalType": "uint256",
          "name": "tokenId",
          "type": "uint256"
        },
        {
          "internalType": "bytes",
          "name": "_data",
          "type": "bytes"
        }
      ],
      "name": "safeTransferFrom",
      "outputs": [],
      "stateMutability": "nonpayable",
      "type": "function"
    },
    {
      "inputs": [
        {
          "internalType": "address",
          "name": "operator",
          "type": "address"
        },
        {
          "internalType": "bool",
          "name": "approved",
          "type": "bool"
        }
      ],
      "name": "setApprovalForAll",
      "outputs": [],
      "stateMutability": "nonpayable",
      "type": "function"
    },
    {
      "inputs": [
        {
          "internalType": "bytes4",
          "name": "interfaceId",
          "type": "bytes4"
        }
      ],
      "name": "supportsInterface",
      "outputs": [
        {
          "internalType": "bool",
          "name": "",
          "type": "bool"
        }
      ],
      "stateMutability": "view",
      "type": "function"
    },
    {
      "inputs": [],
      "name": "symbol",
      "outputs": [
        {
          "internalType": "string",
          "name": "",
          "type": "string"
        }
      ],
      "stateMutability": "view",
      "type": "function"
    },
    {
      "inputs": [
        {
          "internalType": "uint256",
          "name": "tokenId",
          "type": "uint256"
        }
      ],
      "name": "tokenURI",
      "outputs": [
        {
          "internalType": "string",
          "name": "",
          "type": "string"
        }
      ],
      "stateMutability": "view",
      "type": "function"
    },
    {
      "inputs": [
        {
          "internalType": "address",
          "name": "from",
          "type": "address"
        },
        {
          "internalType": "address",
          "name": "to",
          "type": "address"
        },
        {
          "internalType": "uint256",
          "name": "tokenId",
          "type": "uint256"
        }
      ],
      "name": "transferFrom",
      "outputs": [],
      "stateMutability": "nonpayable",
      "type": "function"
    },
    {
      "inputs": [
        {
          "internalType": "address",
          "name": "newOwner",
          "type": "address"
        }
      ],
      "name": "transferOwnership",
      "outputs": [],
      "stateMutability": "nonpayable",
      "type": "function"
    }
  ],
  "bytecode": "0x60806040523480156200001157600080fd5b50604080518082018252601081526f2634b6b4ba32b221b2b6362a37b5b2b760811b602080830191825283518085019094526007845266131a5b5a5d195960ca1b908401528151919291620000699160009162000108565b5080516200007f90600190602084019062000108565b5050506200009c62000096620000b260201b60201c565b620000b6565b336000908152600a6020526040812055620001eb565b3390565b600780546001600160a01b038381166001600160a01b0319831681179093556040519116919082907f8be0079c531659141344cd1fd0a4f28419497f9722a3daafe3b4186f6b6457e090600090a35050565b8280546200011690620001ae565b90600052602060002090601f0160209004810192826200013a576000855562000185565b82601f106200015557805160ff191683800117855562000185565b8280016001018555821562000185579182015b828111156200018557825182559160200191906001019062000168565b506200019392915062000197565b5090565b5b8082111562000193576000815560010162000198565b600181811c90821680620001c357607f821691505b60208210811415620001e557634e487b7160e01b600052602260045260246000fd5b50919050565b611a8f80620001fb6000396000f3fe608060405234801561001057600080fd5b50600436106101165760003560e01c8063715018a6116100a2578063b88d4fde11610071578063b88d4fde14610239578063c4e41b221461024c578063c87b56dd14610254578063e985e9c514610267578063f2fde38b146102a357600080fd5b8063715018a6146102055780638da5cb5b1461020d57806395d89b411461021e578063a22cb4651461022657600080fd5b806323b872dd116100e957806323b872dd146101985780633df0805e146101ab57806342842e0e146101be5780636352211e146101d157806370a08231146101e457600080fd5b806301ffc9a71461011b57806306fdde0314610143578063081812fc14610158578063095ea7b314610183575b600080fd5b61012e61012936600461178a565b6102b6565b60405190151581526020015b60405180910390f35b61014b610308565b60405161013a9190611872565b61016b6101663660046117c2565b61039a565b6040516001600160a01b03909116815260200161013a565b610196610191366004611761565b610427565b005b6101966101a6366004611614565b61053d565b6101966101b9366004611702565b61056e565b6101966101cc366004611614565b6106f9565b61016b6101df3660046117c2565b610714565b6101f76101f23660046115c8565b61078b565b60405190815260200161013a565b610196610812565b6007546001600160a01b031661016b565b61014b610878565b6101966102343660046116c8565b610887565b61019661024736600461164f565b610896565b6101f76108ce565b61014b6102623660046117c2565b6108de565b61012e6102753660046115e2565b6001600160a01b03918216600090815260056020908152604080832093909416825291909152205460ff1690565b6101966102b13660046115c8565b610a55565b60006001600160e01b031982166380ac58cd60e01b14806102e757506001600160e01b03198216635b5e139f60e01b145b8061030257506301ffc9a760e01b6001600160e01b03198316145b92915050565b60606000805461031790611997565b80601f016020809104026020016040519081016040528092919081815260200182805461034390611997565b80156103905780601f1061036557610100808354040283529160200191610390565b820191906000526020600020905b81548152906001019060200180831161037357829003601f168201915b5050505050905090565b60006103a582610b20565b61040b5760405162461bcd60e51b815260206004820152602c60248201527f4552433732313a20617070726f76656420717565727920666f72206e6f6e657860448201526b34b9ba32b73a103a37b5b2b760a11b60648201526084015b60405180910390fd5b506000908152600460205260409020546001600160a01b031690565b600061043282610714565b9050806001600160a01b0316836001600160a01b031614156104a05760405162461bcd60e51b815260206004820152602160248201527f4552433732313a20617070726f76616c20746f2063757272656e74206f776e656044820152603960f91b6064820152608401610402565b336001600160a01b03821614806104bc57506104bc8133610275565b61052e5760405162461bcd60e51b815260206004820152603860248201527f4552433732313a20617070726f76652063616c6c6572206973206e6f74206f7760448201527f6e6572206e6f7220617070726f76656420666f7220616c6c00000000000000006064820152608401610402565b6105388383610b3d565b505050565b6105473382610bab565b6105635760405162461bcd60e51b8152600401610402906118d7565b610538838383610c91565b6007546001600160a01b03163314806105905750600161058d3361078b565b10155b6105c95760405162461bcd60e51b815260206004820152600a6024820152693737ba1036b2b6b132b960b11b6044820152606401610402565b816105dc6007546001600160a01b031690565b6001600160a01b0316336001600160a01b0316148061060a5750336000908152600960205260409020546002115b801561061f5750600061061c8261078b565b11155b61065b5760405162461bcd60e51b815260206004820152600d60248201526c63616e6e6f7420696e7669746560981b6044820152606401610402565b610669600880546001019055565b600061067460085490565b90506106803382610e2d565b61068b3385836106f9565b6106958184610e47565b336000908152600960205260409020546106b0906001610ed2565b33600090815260096020908152604080832093909355600a905220546106d7906001610ed2565b6001600160a01b039094166000908152600a6020526040902093909355505050565b61053883838360405180602001604052806000815250610896565b6000818152600260205260408120546001600160a01b0316806103025760405162461bcd60e51b815260206004820152602960248201527f4552433732313a206f776e657220717565727920666f72206e6f6e657869737460448201526832b73a103a37b5b2b760b91b6064820152608401610402565b60006001600160a01b0382166107f65760405162461bcd60e51b815260206004820152602a60248201527f4552433732313a2062616c616e636520717565727920666f7220746865207a65604482015269726f206164647265737360b01b6064820152608401610402565b506001600160a01b031660009081526003602052604090205490565b6007546001600160a01b0316331461086c5760405162461bcd60e51b815260206004820181905260248201527f4f776e61626c653a2063616c6c6572206973206e6f7420746865206f776e65726044820152606401610402565b6108766000610ee5565b565b60606001805461031790611997565b610892338383610f37565b5050565b6108a03383610bab565b6108bc5760405162461bcd60e51b8152600401610402906118d7565b6108c884848484611006565b50505050565b60006108d960085490565b905090565b60606108e982610b20565b61094f5760405162461bcd60e51b815260206004820152603160248201527f45524337323155524953746f726167653a2055524920717565727920666f72206044820152703737b732bc34b9ba32b73a103a37b5b2b760791b6064820152608401610402565b6000828152600660205260408120805461096890611997565b80601f016020809104026020016040519081016040528092919081815260200182805461099490611997565b80156109e15780601f106109b6576101008083540402835291602001916109e1565b820191906000526020600020905b8154815290600101906020018083116109c457829003601f168201915b5050505050905060006109ff60408051602081019091526000815290565b9050805160001415610a12575092915050565b815115610a44578082604051602001610a2c929190611806565b60405160208183030381529060405292505050919050565b610a4d84611039565b949350505050565b6007546001600160a01b03163314610aaf5760405162461bcd60e51b815260206004820181905260248201527f4f776e61626c653a2063616c6c6572206973206e6f7420746865206f776e65726044820152606401610402565b6001600160a01b038116610b145760405162461bcd60e51b815260206004820152602660248201527f4f776e61626c653a206e6577206f776e657220697320746865207a65726f206160448201526564647265737360d01b6064820152608401610402565b610b1d81610ee5565b50565b6000908152600260205260409020546001600160a01b0316151590565b600081815260046020526040902080546001600160a01b0319166001600160a01b0384169081179091558190610b7282610714565b6001600160a01b03167f8c5be1e5ebec7d5bd14f71427d1e84f3dd0314c0f7b2291e5b200ac8c7c3b92560405160405180910390a45050565b6000610bb682610b20565b610c175760405162461bcd60e51b815260206004820152602c60248201527f4552433732313a206f70657261746f7220717565727920666f72206e6f6e657860448201526b34b9ba32b73a103a37b5b2b760a11b6064820152608401610402565b6000610c2283610714565b9050806001600160a01b0316846001600160a01b03161480610c5d5750836001600160a01b0316610c528461039a565b6001600160a01b0316145b80610a4d57506001600160a01b0380821660009081526005602090815260408083209388168352929052205460ff16610a4d565b826001600160a01b0316610ca482610714565b6001600160a01b031614610d085760405162461bcd60e51b815260206004820152602560248201527f4552433732313a207472616e736665722066726f6d20696e636f72726563742060448201526437bbb732b960d91b6064820152608401610402565b6001600160a01b038216610d6a5760405162461bcd60e51b8152602060048201526024808201527f4552433732313a207472616e7366657220746f20746865207a65726f206164646044820152637265737360e01b6064820152608401610402565b610d75600082610b3d565b6001600160a01b0383166000908152600360205260408120805460019290610d9e908490611954565b90915550506001600160a01b0382166000908152600360205260408120805460019290610dcc908490611928565b909155505060008181526002602052604080822080546001600160a01b0319166001600160a01b0386811691821790925591518493918716917fddf252ad1be2c89b69c2b068fc378daa952ba7f163c4a11628f55a4df523b3ef91a4505050565b610892828260405180602001604052806000815250611110565b610e5082610b20565b610eb35760405162461bcd60e51b815260206004820152602e60248201527f45524337323155524953746f726167653a2055524920736574206f66206e6f6e60448201526d32bc34b9ba32b73a103a37b5b2b760911b6064820152608401610402565b600082815260066020908152604090912082516105389284019061149d565b6000610ede8284611928565b9392505050565b600780546001600160a01b038381166001600160a01b0319831681179093556040519116919082907f8be0079c531659141344cd1fd0a4f28419497f9722a3daafe3b4186f6b6457e090600090a35050565b816001600160a01b0316836001600160a01b03161415610f995760405162461bcd60e51b815260206004820152601960248201527f4552433732313a20617070726f766520746f2063616c6c6572000000000000006044820152606401610402565b6001600160a01b03838116600081815260056020908152604080832094871680845294825291829020805460ff191686151590811790915591519182527f17307eab39ab6107e8899845ad3d59bd9653f200f220920489ca2b5937696c31910160405180910390a3505050565b611011848484610c91565b61101d84848484611143565b6108c85760405162461bcd60e51b815260040161040290611885565b606061104482610b20565b6110a85760405162461bcd60e51b815260206004820152602f60248201527f4552433732314d657461646174613a2055524920717565727920666f72206e6f60448201526e3732bc34b9ba32b73a103a37b5b2b760891b6064820152608401610402565b60006110bf60408051602081019091526000815290565b905060008151116110df5760405180602001604052806000815250610ede565b806110e984611250565b6040516020016110fa929190611806565b6040516020818303038152906040529392505050565b61111a838361136a565b6111276000848484611143565b6105385760405162461bcd60e51b815260040161040290611885565b60006001600160a01b0384163b1561124557604051630a85bd0160e11b81526001600160a01b0385169063150b7a0290611187903390899088908890600401611835565b602060405180830381600087803b1580156111a157600080fd5b505af19250505080156111d1575060408051601f3d908101601f191682019092526111ce918101906117a6565b60015b61122b573d8080156111ff576040519150601f19603f3d011682016040523d82523d6000602084013e611204565b606091505b5080516112235760405162461bcd60e51b815260040161040290611885565b805181602001fd5b6001600160e01b031916630a85bd0160e11b149050610a4d565b506001949350505050565b6060816112745750506040805180820190915260018152600360fc1b602082015290565b8160005b811561129e5780611288816119d2565b91506112979050600a83611940565b9150611278565b60008167ffffffffffffffff8111156112c757634e487b7160e01b600052604160045260246000fd5b6040519080825280601f01601f1916602001820160405280156112f1576020820181803683370190505b5090505b8415610a4d57611306600183611954565b9150611313600a866119ed565b61131e906030611928565b60f81b81838151811061134157634e487b7160e01b600052603260045260246000fd5b60200101906001600160f81b031916908160001a905350611363600a86611940565b94506112f5565b6001600160a01b0382166113c05760405162461bcd60e51b815260206004820181905260248201527f4552433732313a206d696e7420746f20746865207a65726f20616464726573736044820152606401610402565b6113c981610b20565b156114165760405162461bcd60e51b815260206004820152601c60248201527f4552433732313a20746f6b656e20616c7265616479206d696e746564000000006044820152606401610402565b6001600160a01b038216600090815260036020526040812080546001929061143f908490611928565b909155505060008181526002602052604080822080546001600160a01b0319166001600160a01b03861690811790915590518392907fddf252ad1be2c89b69c2b068fc378daa952ba7f163c4a11628f55a4df523b3ef908290a45050565b8280546114a990611997565b90600052602060002090601f0160209004810192826114cb5760008555611511565b82601f106114e457805160ff1916838001178555611511565b82800160010185558215611511579182015b828111156115115782518255916020019190600101906114f6565b5061151d929150611521565b5090565b5b8082111561151d5760008155600101611522565b600067ffffffffffffffff8084111561155157611551611a2d565b604051601f8501601f19908116603f0116810190828211818310171561157957611579611a2d565b8160405280935085815286868601111561159257600080fd5b858560208301376000602087830101525050509392505050565b80356001600160a01b03811681146115c357600080fd5b919050565b6000602082840312156115d9578081fd5b610ede826115ac565b600080604083850312156115f4578081fd5b6115fd836115ac565b915061160b602084016115ac565b90509250929050565b600080600060608486031215611628578081fd5b611631846115ac565b925061163f602085016115ac565b9150604084013590509250925092565b60008060008060808587031215611664578081fd5b61166d856115ac565b935061167b602086016115ac565b925060408501359150606085013567ffffffffffffffff81111561169d578182fd5b8501601f810187136116ad578182fd5b6116bc87823560208401611536565b91505092959194509250565b600080604083850312156116da578182fd5b6116e3836115ac565b9150602083013580151581146116f7578182fd5b809150509250929050565b60008060408385031215611714578182fd5b61171d836115ac565b9150602083013567ffffffffffffffff811115611738578182fd5b8301601f81018513611748578182fd5b61175785823560208401611536565b9150509250929050565b60008060408385031215611773578182fd5b61177c836115ac565b946020939093013593505050565b60006020828403121561179b578081fd5b8135610ede81611a43565b6000602082840312156117b7578081fd5b8151610ede81611a43565b6000602082840312156117d3578081fd5b5035919050565b600081518084526117f281602086016020860161196b565b601f01601f19169290920160200192915050565b6000835161181881846020880161196b565b83519083019061182c81836020880161196b565b01949350505050565b6001600160a01b0385811682528416602082015260408101839052608060608201819052600090611868908301846117da565b9695505050505050565b602081526000610ede60208301846117da565b60208082526032908201527f4552433732313a207472616e7366657220746f206e6f6e20455243373231526560408201527131b2b4bb32b91034b6b83632b6b2b73a32b960711b606082015260800190565b60208082526031908201527f4552433732313a207472616e736665722063616c6c6572206973206e6f74206f6040820152701ddb995c881b9bdc88185c1c1c9bdd9959607a1b606082015260800190565b6000821982111561193b5761193b611a01565b500190565b60008261194f5761194f611a17565b500490565b60008282101561196657611966611a01565b500390565b60005b8381101561198657818101518382015260200161196e565b838111156108c85750506000910152565b600181811c908216806119ab57607f821691505b602082108114156119cc57634e487b7160e01b600052602260045260246000fd5b50919050565b60006000198214156119e6576119e6611a01565b5060010190565b6000826119fc576119fc611a17565b500690565b634e487b7160e01b600052601160045260246000fd5b634e487b7160e01b600052601260045260246000fd5b634e487b7160e01b600052604160045260246000fd5b6001600160e01b031981168114610b1d57600080fdfea2646970667358221220ebd38f2a60f36e2e213e3a4f387887fce55a459f9f8586c69c1a24ca4bc0fa4d64736f6c63430008040033",
  "linkReferences": {},
  "deployedLinkReferences": {}
}