{
  "_format": "hh-sol-artifact-1",
  "contractName": "NFTContract",
  "sourceName": "contracts/NFTContract.sol",
  "abi": [
    {
      "inputs": [],
      "stateMutability": "nonpayable",
      "type": "constructor"
    },
    {
      "anonymous": false,
      "inputs": [
        {
          "indexed": true,
          "internalType": "address",
          "name": "account",
          "type": "address"
        },
        {
          "indexed": true,
          "internalType": "address",
          "name": "operator",
          "type": "address"
        },
        {
          "indexed": false,
          "internalType": "bool",
          "name": "approved",
          "type": "bool"
        }
      ],
      "name": "ApprovalForAll",
      "type": "event"
    },
    {
      "anonymous": false,
      "inputs": [
        {
          "indexed": true,
          "internalType": "address",
          "name": "previousOwner",
          "type": "address"
        },
        {
          "indexed": true,
          "internalType": "address",
          "name": "newOwner",
          "type": "address"
        }
      ],
      "name": "OwnershipTransferred",
      "type": "event"
    },
    {
      "anonymous": false,
      "inputs": [
        {
          "indexed": true,
          "internalType": "address",
          "name": "operator",
          "type": "address"
        },
        {
          "indexed": true,
          "internalType": "address",
          "name": "from",
          "type": "address"
        },
        {
          "indexed": true,
          "internalType": "address",
          "name": "to",
          "type": "address"
        },
        {
          "indexed": false,
          "internalType": "uint256[]",
          "name": "ids",
          "type": "uint256[]"
        },
        {
          "indexed": false,
          "internalType": "uint256[]",
          "name": "values",
          "type": "uint256[]"
        }
      ],
      "name": "TransferBatch",
      "type": "event"
    },
    {
      "anonymous": false,
      "inputs": [
        {
          "indexed": true,
          "internalType": "address",
          "name": "operator",
          "type": "address"
        },
        {
          "indexed": true,
          "internalType": "address",
          "name": "from",
          "type": "address"
        },
        {
          "indexed": true,
          "internalType": "address",
          "name": "to",
          "type": "address"
        },
        {
          "indexed": false,
          "internalType": "uint256",
          "name": "id",
          "type": "uint256"
        },
        {
          "indexed": false,
          "internalType": "uint256",
          "name": "value",
          "type": "uint256"
        }
      ],
      "name": "TransferSingle",
      "type": "event"
    },
    {
      "anonymous": false,
      "inputs": [
        {
          "indexed": false,
          "internalType": "string",
          "name": "value",
          "type": "string"
        },
        {
          "indexed": true,
          "internalType": "uint256",
          "name": "id",
          "type": "uint256"
        }
      ],
      "name": "URI",
      "type": "event"
    },
    {
      "inputs": [
        {
          "internalType": "address",
          "name": "account",
          "type": "address"
        },
        {
          "internalType": "uint256",
          "name": "id",
          "type": "uint256"
        }
      ],
      "name": "balanceOf",
      "outputs": [
        {
          "internalType": "uint256",
          "name": "",
          "type": "uint256"
        }
      ],
      "stateMutability": "view",
      "type": "function"
    },
    {
      "inputs": [
        {
          "internalType": "address[]",
          "name": "accounts",
          "type": "address[]"
        },
        {
          "internalType": "uint256[]",
          "name": "ids",
          "type": "uint256[]"
        }
      ],
      "name": "balanceOfBatch",
      "outputs": [
        {
          "internalType": "uint256[]",
          "name": "",
          "type": "uint256[]"
        }
      ],
      "stateMutability": "view",
      "type": "function"
    },
    {
      "inputs": [
        {
          "internalType": "address",
          "name": "account",
          "type": "address"
        },
        {
          "internalType": "address",
          "name": "operator",
          "type": "address"
        }
      ],
      "name": "isApprovedForAll",
      "outputs": [
        {
          "internalType": "bool",
          "name": "",
          "type": "bool"
        }
      ],
      "stateMutability": "view",
      "type": "function"
    },
    {
      "inputs": [],
      "name": "owner",
      "outputs": [
        {
          "internalType": "address",
          "name": "",
          "type": "address"
        }
      ],
      "stateMutability": "view",
      "type": "function"
    },
    {
      "inputs": [],
      "name": "renounceOwnership",
      "outputs": [],
      "stateMutability": "nonpayable",
      "type": "function"
    },
    {
      "inputs": [
        {
          "internalType": "address",
          "name": "from",
          "type": "address"
        },
        {
          "internalType": "address",
          "name": "to",
          "type": "address"
        },
        {
          "internalType": "uint256[]",
          "name": "ids",
          "type": "uint256[]"
        },
        {
          "internalType": "uint256[]",
          "name": "amounts",
          "type": "uint256[]"
        },
        {
          "internalType": "bytes",
          "name": "data",
          "type": "bytes"
        }
      ],
      "name": "safeBatchTransferFrom",
      "outputs": [],
      "stateMutability": "nonpayable",
      "type": "function"
    },
    {
      "inputs": [
        {
          "internalType": "address",
          "name": "from",
          "type": "address"
        },
        {
          "internalType": "address",
          "name": "to",
          "type": "address"
        },
        {
          "internalType": "uint256",
          "name": "id",
          "type": "uint256"
        },
        {
          "internalType": "uint256",
          "name": "amount",
          "type": "uint256"
        },
        {
          "internalType": "bytes",
          "name": "data",
          "type": "bytes"
        }
      ],
      "name": "safeTransferFrom",
      "outputs": [],
      "stateMutability": "nonpayable",
      "type": "function"
    },
    {
      "inputs": [
        {
          "internalType": "address",
          "name": "operator",
          "type": "address"
        },
        {
          "internalType": "bool",
          "name": "approved",
          "type": "bool"
        }
      ],
      "name": "setApprovalForAll",
      "outputs": [],
      "stateMutability": "nonpayable",
      "type": "function"
    },
    {
      "inputs": [
        {
          "internalType": "bytes4",
          "name": "interfaceId",
          "type": "bytes4"
        }
      ],
      "name": "supportsInterface",
      "outputs": [
        {
          "internalType": "bool",
          "name": "",
          "type": "bool"
        }
      ],
      "stateMutability": "view",
      "type": "function"
    },
    {
      "inputs": [
        {
          "internalType": "address",
          "name": "newOwner",
          "type": "address"
        }
      ],
      "name": "transferOwnership",
      "outputs": [],
      "stateMutability": "nonpayable",
      "type": "function"
    },
    {
      "inputs": [
        {
          "internalType": "uint256",
          "name": "",
          "type": "uint256"
        }
      ],
      "name": "uri",
      "outputs": [
        {
          "internalType": "string",
          "name": "",
          "type": "string"
        }
      ],
      "stateMutability": "view",
      "type": "function"
    }
  ],
  "bytecode": "0x60806040523480156200001157600080fd5b5060405180608001604052806048815260200162001d83604891396200003781620000b7565b506200004333620000d0565b6200006733600180604051806020016040528060008152506200012260201b60201c565b6200008c3360026001604051806020016040528060008152506200012260201b60201c565b620000b13360036001604051806020016040528060008152506200012260201b60201c565b6200075f565b8051620000cc90600290602084019062000499565b5050565b600380546001600160a01b038381166001600160a01b0319831681179093556040519116919082907f8be0079c531659141344cd1fd0a4f28419497f9722a3daafe3b4186f6b6457e090600090a35050565b6001600160a01b038416620001885760405162461bcd60e51b815260206004820152602160248201527f455243313135353a206d696e7420746f20746865207a65726f206164647265736044820152607360f81b60648201526084015b60405180910390fd5b33620001ae816000876200019c8862000242565b620001a78862000242565b5050505050565b6000848152602081815260408083206001600160a01b038916845290915281208054859290620001e09084906200061a565b909155505060408051858152602081018590526001600160a01b0380881692600092918516917fc3d58168c5ae7397731d063d5bbf3d657854427343f4c083240f7aacaa2d0f62910160405180910390a4620001a781600087878787620002a4565b604080516001808252818301909252606091600091906020808301908036833701905050905082816000815181106200028b57634e487b7160e01b600052603260045260246000fd5b602090810291909101015292915050565b505050505050565b620002c3846001600160a01b03166200048a60201b620007201760201c565b156200029c5760405163f23a6e6160e01b81526001600160a01b0385169063f23a6e6190620002ff9089908990889088908890600401620005be565b602060405180830381600087803b1580156200031a57600080fd5b505af19250505080156200034d575060408051601f3d908101601f191682019092526200034a918101906200053f565b60015b6200040e576200035c620006b7565b806308c379a014156200039d575062000374620006d0565b806200038157506200039f565b8060405162461bcd60e51b81526004016200017f919062000605565b505b60405162461bcd60e51b815260206004820152603460248201527f455243313135353a207472616e7366657220746f206e6f6e204552433131353560448201527f526563656976657220696d706c656d656e74657200000000000000000000000060648201526084016200017f565b6001600160e01b0319811663f23a6e6160e01b14620004815760405162461bcd60e51b815260206004820152602860248201527f455243313135353a204552433131353552656365697665722072656a656374656044820152676420746f6b656e7360c01b60648201526084016200017f565b50505050505050565b6001600160a01b03163b151590565b828054620004a7906200063f565b90600052602060002090601f016020900481019282620004cb576000855562000516565b82601f10620004e657805160ff191683800117855562000516565b8280016001018555821562000516579182015b8281111562000516578251825591602001919060010190620004f9565b506200052492915062000528565b5090565b5b8082111562000524576000815560010162000529565b60006020828403121562000551578081fd5b81516001600160e01b03198116811462000569578182fd5b9392505050565b60008151808452815b81811015620005975760208185018101518683018201520162000579565b81811115620005a95782602083870101525b50601f01601f19169290920160200192915050565b6001600160a01b03868116825285166020820152604081018490526060810183905260a060808201819052600090620005fa9083018462000570565b979650505050505050565b60208152600062000569602083018462000570565b600082198211156200063a57634e487b7160e01b81526011600452602481fd5b500190565b600181811c908216806200065457607f821691505b602082108114156200067657634e487b7160e01b600052602260045260246000fd5b50919050565b601f8201601f191681016001600160401b0381118282101715620006b057634e487b7160e01b600052604160045260246000fd5b6040525050565b600060033d1115620006cd57600481823e5160e01c5b90565b600060443d1015620006df5790565b6040516003193d81016004833e81513d6001600160401b0380831160248401831017156200070f57505050505090565b8285019150815181811115620007285750505050505090565b843d8701016020828501011115620007435750505050505090565b62000754602082860101876200067c565b509095945050505050565b611614806200076f6000396000f3fe608060405234801561001057600080fd5b50600436106100a85760003560e01c8063715018a611610071578063715018a61461014b5780638da5cb5b14610153578063a22cb4651461016e578063e985e9c514610181578063f242432a146101bd578063f2fde38b146101d057600080fd5b8062fdd58e146100ad57806301ffc9a7146100d35780630e89341c146100f65780632eb2c2d6146101165780634e1273f41461012b575b600080fd5b6100c06100bb3660046110a4565b6101e3565b6040519081526020015b60405180910390f35b6100e66100e1366004611198565b61027a565b60405190151581526020016100ca565b6101096101043660046111d0565b6102cc565b6040516100ca9190611351565b610129610124366004610f61565b610360565b005b61013e6101393660046110cd565b6103f7565b6040516100ca9190611310565b610129610559565b6003546040516001600160a01b0390911681526020016100ca565b61012961017c36600461106a565b6105bf565b6100e661018f366004610f2f565b6001600160a01b03918216600090815260016020908152604080832093909416825291909152205460ff1690565b6101296101cb366004611007565b6105ce565b6101296101de366004610f0e565b610655565b60006001600160a01b0383166102545760405162461bcd60e51b815260206004820152602b60248201527f455243313135353a2062616c616e636520717565727920666f7220746865207a60448201526a65726f206164647265737360a81b60648201526084015b60405180910390fd5b506000908152602081815260408083206001600160a01b03949094168352929052205490565b60006001600160e01b03198216636cdb3d1360e11b14806102ab57506001600160e01b031982166303a24d0760e21b145b806102c657506301ffc9a760e01b6001600160e01b03198316145b92915050565b6060600280546102db90611477565b80601f016020809104026020016040519081016040528092919081815260200182805461030790611477565b80156103545780601f1061032957610100808354040283529160200191610354565b820191906000526020600020905b81548152906001019060200180831161033757829003601f168201915b50505050509050919050565b6001600160a01b03851633148061037c575061037c853361018f565b6103e35760405162461bcd60e51b815260206004820152603260248201527f455243313135353a207472616e736665722063616c6c6572206973206e6f74206044820152711bdddb995c881b9bdc88185c1c1c9bdd995960721b606482015260840161024b565b6103f0858585858561072f565b5050505050565b6060815183511461045c5760405162461bcd60e51b815260206004820152602960248201527f455243313135353a206163636f756e747320616e6420696473206c656e677468604482015268040dad2e6dac2e8c6d60bb1b606482015260840161024b565b6000835167ffffffffffffffff81111561048657634e487b7160e01b600052604160045260246000fd5b6040519080825280602002602001820160405280156104af578160200160208202803683370190505b50905060005b8451811015610551576105168582815181106104e157634e487b7160e01b600052603260045260246000fd5b602002602001015185838151811061050957634e487b7160e01b600052603260045260246000fd5b60200260200101516101e3565b82828151811061053657634e487b7160e01b600052603260045260246000fd5b602090810291909101015261054a816114df565b90506104b5565b509392505050565b6003546001600160a01b031633146105b35760405162461bcd60e51b815260206004820181905260248201527f4f776e61626c653a2063616c6c6572206973206e6f7420746865206f776e6572604482015260640161024b565b6105bd6000610928565b565b6105ca33838361097a565b5050565b6001600160a01b0385163314806105ea57506105ea853361018f565b6106485760405162461bcd60e51b815260206004820152602960248201527f455243313135353a2063616c6c6572206973206e6f74206f776e6572206e6f7260448201526808185c1c1c9bdd995960ba1b606482015260840161024b565b6103f08585858585610a5b565b6003546001600160a01b031633146106af5760405162461bcd60e51b815260206004820181905260248201527f4f776e61626c653a2063616c6c6572206973206e6f7420746865206f776e6572604482015260640161024b565b6001600160a01b0381166107145760405162461bcd60e51b815260206004820152602660248201527f4f776e61626c653a206e6577206f776e657220697320746865207a65726f206160448201526564647265737360d01b606482015260840161024b565b61071d81610928565b50565b6001600160a01b03163b151590565b81518351146107915760405162461bcd60e51b815260206004820152602860248201527f455243313135353a2069647320616e6420616d6f756e7473206c656e677468206044820152670dad2e6dac2e8c6d60c31b606482015260840161024b565b6001600160a01b0384166107b75760405162461bcd60e51b815260040161024b906113ac565b3360005b84518110156108ba5760008582815181106107e657634e487b7160e01b600052603260045260246000fd5b60200260200101519050600085838151811061081257634e487b7160e01b600052603260045260246000fd5b602090810291909101810151600084815280835260408082206001600160a01b038e1683529093529190912054909150818110156108625760405162461bcd60e51b815260040161024b906113f1565b6000838152602081815260408083206001600160a01b038e8116855292528083208585039055908b1682528120805484929061089f90849061145f565b92505081905550505050806108b3906114df565b90506107bb565b50846001600160a01b0316866001600160a01b0316826001600160a01b03167f4a39dc06d4c0dbc64b70af90fd698a233a518aa5d07e595d983b8c0526c8f7fb878760405161090a929190611323565b60405180910390a4610920818787878787610b81565b505050505050565b600380546001600160a01b038381166001600160a01b0319831681179093556040519116919082907f8be0079c531659141344cd1fd0a4f28419497f9722a3daafe3b4186f6b6457e090600090a35050565b816001600160a01b0316836001600160a01b031614156109ee5760405162461bcd60e51b815260206004820152602960248201527f455243313135353a2073657474696e6720617070726f76616c20737461747573604482015268103337b91039b2b63360b91b606482015260840161024b565b6001600160a01b03838116600081815260016020908152604080832094871680845294825291829020805460ff191686151590811790915591519182527f17307eab39ab6107e8899845ad3d59bd9653f200f220920489ca2b5937696c31910160405180910390a3505050565b6001600160a01b038416610a815760405162461bcd60e51b815260040161024b906113ac565b33610a9a818787610a9188610cec565b6103f088610cec565b6000848152602081815260408083206001600160a01b038a16845290915290205483811015610adb5760405162461bcd60e51b815260040161024b906113f1565b6000858152602081815260408083206001600160a01b038b8116855292528083208785039055908816825281208054869290610b1890849061145f565b909155505060408051868152602081018690526001600160a01b03808916928a821692918616917fc3d58168c5ae7397731d063d5bbf3d657854427343f4c083240f7aacaa2d0f62910160405180910390a4610b78828888888888610d45565b50505050505050565b6001600160a01b0384163b156109205760405163bc197c8160e01b81526001600160a01b0385169063bc197c8190610bc5908990899088908890889060040161126d565b602060405180830381600087803b158015610bdf57600080fd5b505af1925050508015610c0f575060408051601f3d908101601f19168201909252610c0c918101906111b4565b60015b610cbc57610c1b611526565b806308c379a01415610c555750610c3061153e565b80610c3b5750610c57565b8060405162461bcd60e51b815260040161024b9190611351565b505b60405162461bcd60e51b815260206004820152603460248201527f455243313135353a207472616e7366657220746f206e6f6e20455243313135356044820152732932b1b2b4bb32b91034b6b83632b6b2b73a32b960611b606482015260840161024b565b6001600160e01b0319811663bc197c8160e01b14610b785760405162461bcd60e51b815260040161024b90611364565b60408051600180825281830190925260609160009190602080830190803683370190505090508281600081518110610d3457634e487b7160e01b600052603260045260246000fd5b602090810291909101015292915050565b6001600160a01b0384163b156109205760405163f23a6e6160e01b81526001600160a01b0385169063f23a6e6190610d8990899089908890889088906004016112cb565b602060405180830381600087803b158015610da357600080fd5b505af1925050508015610dd3575060408051601f3d908101601f19168201909252610dd0918101906111b4565b60015b610ddf57610c1b611526565b6001600160e01b0319811663f23a6e6160e01b14610b785760405162461bcd60e51b815260040161024b90611364565b80356001600160a01b0381168114610e2657600080fd5b919050565b600082601f830112610e3b578081fd5b81356020610e488261143b565b604051610e5582826114b2565b8381528281019150858301600585901b87018401881015610e74578586fd5b855b85811015610e9257813584529284019290840190600101610e76565b5090979650505050505050565b600082601f830112610eaf578081fd5b813567ffffffffffffffff811115610ec957610ec9611510565b604051610ee0601f8301601f1916602001826114b2565b818152846020838601011115610ef4578283fd5b816020850160208301379081016020019190915292915050565b600060208284031215610f1f578081fd5b610f2882610e0f565b9392505050565b60008060408385031215610f41578081fd5b610f4a83610e0f565b9150610f5860208401610e0f565b90509250929050565b600080600080600060a08688031215610f78578081fd5b610f8186610e0f565b9450610f8f60208701610e0f565b9350604086013567ffffffffffffffff80821115610fab578283fd5b610fb789838a01610e2b565b94506060880135915080821115610fcc578283fd5b610fd889838a01610e2b565b93506080880135915080821115610fed578283fd5b50610ffa88828901610e9f565b9150509295509295909350565b600080600080600060a0868803121561101e578081fd5b61102786610e0f565b945061103560208701610e0f565b93506040860135925060608601359150608086013567ffffffffffffffff81111561105e578182fd5b610ffa88828901610e9f565b6000806040838503121561107c578182fd5b61108583610e0f565b915060208301358015158114611099578182fd5b809150509250929050565b600080604083850312156110b6578182fd5b6110bf83610e0f565b946020939093013593505050565b600080604083850312156110df578182fd5b823567ffffffffffffffff808211156110f6578384fd5b818501915085601f830112611109578384fd5b813560206111168261143b565b60405161112382826114b2565b8381528281019150858301600585901b870184018b1015611142578889fd5b8896505b8487101561116b5761115781610e0f565b835260019690960195918301918301611146565b5096505086013592505080821115611181578283fd5b5061118e85828601610e2b565b9150509250929050565b6000602082840312156111a9578081fd5b8135610f28816115c8565b6000602082840312156111c5578081fd5b8151610f28816115c8565b6000602082840312156111e1578081fd5b5035919050565b6000815180845260208085019450808401835b83811015611217578151875295820195908201906001016111fb565b509495945050505050565b60008151808452815b818110156112475760208185018101518683018201520161122b565b818111156112585782602083870101525b50601f01601f19169290920160200192915050565b6001600160a01b0386811682528516602082015260a060408201819052600090611299908301866111e8565b82810360608401526112ab81866111e8565b905082810360808401526112bf8185611222565b98975050505050505050565b6001600160a01b03868116825285166020820152604081018490526060810183905260a06080820181905260009061130590830184611222565b979650505050505050565b602081526000610f2860208301846111e8565b60408152600061133660408301856111e8565b828103602084015261134881856111e8565b95945050505050565b602081526000610f286020830184611222565b60208082526028908201527f455243313135353a204552433131353552656365697665722072656a656374656040820152676420746f6b656e7360c01b606082015260800190565b60208082526025908201527f455243313135353a207472616e7366657220746f20746865207a65726f206164604082015264647265737360d81b606082015260800190565b6020808252602a908201527f455243313135353a20696e73756666696369656e742062616c616e636520666f60408201526939103a3930b739b332b960b11b606082015260800190565b600067ffffffffffffffff82111561145557611455611510565b5060051b60200190565b60008219821115611472576114726114fa565b500190565b600181811c9082168061148b57607f821691505b602082108114156114ac57634e487b7160e01b600052602260045260246000fd5b50919050565b601f8201601f1916810167ffffffffffffffff811182821017156114d8576114d8611510565b6040525050565b60006000198214156114f3576114f36114fa565b5060010190565b634e487b7160e01b600052601160045260246000fd5b634e487b7160e01b600052604160045260246000fd5b600060033d111561153b57600481823e5160e01c5b90565b600060443d101561154c5790565b6040516003193d81016004833e81513d67ffffffffffffffff816024840111818411171561157c57505050505090565b82850191508151818111156115945750505050505090565b843d87010160208285010111156115ae5750505050505090565b6115bd602082860101876114b2565b509095945050505050565b6001600160e01b03198116811461071d57600080fdfea2646970667358221220b4b38b46b8bbd5f5be219a5aa6e3a5e209bddfb9e4730b6cffec23716826a9f964736f6c63430008040033697066733a2f2f516d56446869465777313176527a536953505a396d33706f454d6b4d74756755524b437131795a5333596f7a6a582f6d657461646174612f7b69647d2e6a736f6e",
  "linkReferences": {},
  "deployedLinkReferences": {}
}